:1000000072C400008DC400008BC400000C94CB327D
:1000100087C4000085C4000083C4000081C40000C0
:100020007FC400007DC400000C9408310C94F031B2
:100030000C94BD3075C4000073C4000071C400008E
:100040006FC400006DC400006BC4000069C40000F0
:1000500067C400000C94E43063C4000061C4000075
:100060005FC400005DC400005BC4000059C4000010
:1000700057C4000055C4000053C4000051C4000020
:100080004FC400004DC400004BC4000049C4000030
:1000900047C4000045C4000043C4000041C4000040
:1000A0003FC400003DC400003BC40000050109023C
:1000B000A10185020901A1000509190129081500FE
:1000C0002501950875018102050109300931158165
:1000D000257F95027508810609381581257F9501D0
:1000E00075088106050C0A38021581257F95017572
:1000F000088106C0C005010980A101850319012AF4
:10010000B700150126B700950175108100C0050CD8
:100110000901A101850419012AA002150126A002E6
:10012000950175108100C005010906A1018506052C
:100130000719E029E71500250195087501810205D9
:1001400007190029EF1500250195F07501810205B9
:10015000081901290595057501910295017503910D
:1001600001C00660FF0961A1010962150026FF00B8
:100170009520750881020963150026FF00952075FA
:10018000089102C005010906A101050719E029E748
:1001900015002501950875018102950175088101F9
:1001A0000507190029FF150026FF0095067508812F
:1001B000000508190129051500250195057501910E
:1001C00002950175039101C009025B00030100A0C3
:1001D000FA090400000103010100092111010001D5
:1001E00022440007058103080001090401000203FD
:1001F00000000009211101000122220007058203ED
:100200002000010705030320000109040200010387
:1002100000000009211101000122B6000705840336
:1002200020000112010002000000081120018300DB
:1002300001010203011C037600690061006C003AB1
:100240000066003600340063003200620033006351
:1002500000000010037000680061006C0077006F00
:10026000006C0000001203790075006200750072D6
:10027000006F006C006C0000000403090400000023
:10028000000000000000000000000000000000006E
:10029000000000000000000000000000000000005E
:1002A000007E0F00D4FFFFFFC700000078000000B1
:1002B00000000000002A2B280000000000000000C1
:1002C000000000000000000029000000002C1E3487
:1002D00020212224342627252E362D3738271E1F8D
:1002E000202122232425263333362E37381F0405B8
:1002F000060708090A0B0C0D0E0F10111213141526
:10030000161718191A1B1C1D2F3130232D35040503
:10031000060708090A0B0C0D0E0F10111213141505
:10032000161718191A1B1C1D2F3130354C29003592
:10033000001E001F0020002100220023004C002B83
:100340000014001A000800150017001C00280039CE
:100350000004001600070009000A000B002152E10A
:100360000064001D001B000600190005002252E079
:1003700000E30000006500E2002C002A002A0032A1
:10038000002E002D0027002600250024003100301B
:10039000002F00130012000C0018001C00280000A1
:1003A00000340033000F000E000D000B002152E559
:1003B000003800370036001000110005004F0052D1
:1003C0000051005000E400E6002C00280029003510
:1003D000003A003B003C003D003E003F00000001B1
:1003E000000000000000000000000000000000E02D
:1003F00000000000000000000000000000010001FB
:1004000000000000000000000000000000000001EB
:10041000000100000001000100010001004C004942
:10042000004500440043004200410040000000003D
:100430000052004800470046000000000000000095
:10044000004F0050004B004A000000000001000176
:100450000051004E004D000000000000004D004E15
:10046000004B004A000100010001000100010001F1
:100470000001000100010001000100010001000174
:100480000001000100010001000100010001000164
:100490000001000100010001000100010000000155
:1004A0000001000100010001000100010001000144
:1004B0000001000000010001000100010001000135
:1004C0000001000100010001000100010000000026
:1004D00000D9000000000000000000000000000043
:1004E00000DC00DB0000000000017C007C0000015B
:1004F00000DA0000000000000000000000D000CD85
:1005000000CE00CF00D300D200D1000000010001D6
:1005100000F103DA152A18000002000200ED03DAE8
:10052000152A18000003000100F203DA152A18004A
:100530000004000200D703DA152A188A0805000112
:1005400000F303DA152A18000006000200D903DAC6
:10055000152A18000007000200EF03DA152A180018
:100560000009000200DB03DA152A1893080A0002CA
:1005700000DD03DA152A1893080B000200DF03DA06
:10058000152A1893080C000200E103DA152A1893C3
:10059000080D000200E303DA152A1893080E000282
:1005A00000E503DA152A1893080F000200E703DAC2
:1005B000152A18930810000200E903DA152A189387
:1005C0000811000200EB03DA152A18930812000242
:1005D00000F503DA152A18000013000200F703DA09
:1005E000152A18000014000100F903DA152A180072
:1005F00000150000000000C008E91000001600010E
:1006000000F403F1154018000017000101F403F194
:10061000154018000018000102F403F115401800FD
:100620000019000200FB03DA152A1800001A000165
:1006300003F403F115401800001B000200FD03DA6B
:10064000152A180000FD377A585A000004E6D6B47F
:10065000460200210116000000742FE5A3E005907A
:1006600001DF5D003D8889C65436C3174FE4F81892
:10067000C290672B84C8D925EB9B3832FDD78733CE
:10068000568CE03F113DC77DA59AC07232B24CE650
:10069000A875E2BE289AAEBDF8DCE5662A20031EE6
:1006A000AD6B63570B7E48FF5C8959302E87979F4F
:1006B000B046A5F0D5950528FFF66A7B6FD295B1B7
:1006C0006AC5B2738DEEA6C35437898113309C1668
:1006D0008B7F034AB280BD7C9D7A161022C83F559D
:1006E000B22B1CAB7AC3635B2CBAAF72311DA6BFB1
:1006F00094CA9B5B14D020EB3778F425DD0533BB1F
:100700001C15AC46EF308E5622B7613FEB6D77F685
:100710004D57E929564E869FBCDFF4B29AA66491E4
:10072000E8B822382181D2ABC7CFCFD9AFC403ED0F
:100730004E0E19EA5BF3FDA8EB46515469D773AA34
:10074000C8DFC8EFE177B17EDD5D9DB8DCA8F57B41
:100750001FA7F9B9F316D97E911D7815D5FE823AF7
:100760008C02F017CD55DE152D3FE668CC5C647D1C
:100770006F2B457466A780C4E5C69F868C2468D716
:1007800087EE68452FB70BCC8847C414D2EAF2FE37
:10079000884030A6730392620985DE0957FBEFD0CB
:1007A00070EF700212E159BC5F9104B3346F33B043
:1007B0009F518A38418DFD05349D118EE88399B192
:1007C0008CBA63BA28C1B939CD74ADD365BF4612AE
:1007D00040AE3174F016AEADE3B882B722BB6E0303
:1007E000FAAAA7487AB64A6717064C7D28A77AE87E
:1007F0001C26A1849A4B751CCFC83F53CAE109D36C
:10080000CC000AFBC3EE0CD9202FC688DCA2CCC9D1
:10081000323591ED6B22BC3E880574E694C950AC2C
:1008200055B744EA14730E1A5605D64DE54EA6493F
:1008300062BB6B0720EA321BE3A07B4055E2FC045D
:10084000044FC800000B5617772DEDD9640001FB4B
:1008500003910B0000F72E09F2B1C467FB02000000
:10086000000004595A4C4C4C4C4C4C4C4C4C4C4C8D
:100870004C4C4C4C4C4C4C4C4C4C4C4C4C4C4C4CB8
:100880004C4C4C4C4C4C4C4C004C4C4C4C525252E2
:10089000525252525252525252525252525200528A
:1008A0005252525252525252525252525252525228
:1008B0005252525252504F52514A4D4B4E2A4C2F87
:1008C00030B6B7ABACBBBCA9AABDBECFD0CDCEDBDA
:1008D000DCD9DA0D0E0B0F1A0508050905071811EA
:1008E000130408120C0011241FBECFEFDAE0DEBFA4
:1008F000CDBF11E0A0E0B1E0E8E9FAE602C0059062
:100900000D92A03DB107D9F724E0A0EDB1E001C000
:100910001D92A430B207E1F70E94102A0C94D7343C
:100920006FCB9C01FB0191509F31B0F4832F8170FC
:1009300034FF0AC08295807F31FD806232FD806481
:1009400033FD80680995089531FD826032FD846031
:1009500033FFF8CF8860F6CF80E0F4CF0C943A34C0
:100960000895982F92959F7061F420E0982F892F19
:100970008695869511F02E5F982F892F8695820F88
:10098000089524E0F4CF282F92959F70963099F027
:1009900060F4925F9F70923030F4203FB1F038F4F1
:1009A00081E0283E38F080E008959A5FF3CF81E03F
:1009B000243FC9F7089591E0813F09F090E081E07C
:1009C000283E08F080E0892B089581E00895809307
:1009D0007903089580937A03089521E001C0220FDE
:1009E0008A95EAF780917A03822BF4CF21E001C047
:1009F000220F8A95EAF7822F809590917A038923B6
:100A0000E9CF9A3090F5883080F548E0949F9001C6
:100A10001124280F311D51E081FD54E080FD550F58
:100A200082FD529583E0369527958A95E1F7F90185
:100A3000EE0FFF1FE20FF31FE852FD4F20E030E002
:100A400070E04191DF01CB01022E02C0969587959F
:100A50000A94E2F78695880B8427852384278E9352
:100A60002F5F3F4F2330310561F708959A3070F5BD
:100A7000883060F548E0949F90011124280F311DC3
:100A80008770982F83E0369527958A95E1F7F901CD
:100A9000EE0FFF1FE20FF31FE852FD4F40E050E062
:100AA00080E0219130E0092E02C0369527950A9406
:100AB000E2F72170042E01C0220F0A94EAF7822B7C
:100AC0004F5F5F4F4330510561F7089580E008950F
:100AD00090917A0321E030E0F90101C0EE0F8A9590
:100AE000EAF7D90101C0AA0F6A95EAF7EA2B01C01B
:100AF000220F4A95EAF7892F8E23E81303C0892F26
:100B0000822B68CF2095822F8923FBCFE09185032C
:100B100090918403E91302C080E008959F0159E099
:100B2000E59FF0011124EA57FC4F5181561306C08E
:100B30005081581303C05581541305C02F5F3F4F98
:100B4000F901E770E7CF81E008958091D70290E046
:100B500020E0022E001C0008281709060CF008955A
:100B60002F5FF7CFCF93DF93DB01FC01248121308E
:100B700059F514962C911497213031F5E18128E034
:100B8000E29FF0011124EC018881E80FF11DEB597F
:100B9000F74F94919A32C1F01196EC9188E0E89F5A
:100BA000F00111248E91E80FF11DEB59F74FE491FC
:100BB00081E09E1301C080E091E0EA3209F090E00C
:100BC000892BDF91CF91089581E0FBCF9C0180912B
:100BD0007B038D7999F4303570F43032B0F42333DF
:100BE000310501F1C0F481E02E31310580F424306B
:100BF000310520F00895932F965511F080E0089567
:100C0000C901805F96450797C8F330E0E8CF2C32E2
:100C10003105A1F708952653310981E023303105CC
:100C200048F3ECCF81E008958091850320918403FF
:100C3000281301C0089501968770FACF90917F0321
:100C40008095892380937F03282F277081F489174B
:100C500071F09091000492FF0AC086958695869562
:100C6000C5DE10927F0310928003109281030895D5
:100C700090917B03982B90937B0308958095982FF8
:100C800080917B03892380937B0308958091770370
:100C9000811531F01092770310927503109276034C
:100CA0000895803E9105D1F1C8F48133910509F48E
:100CB00081C048F48932910509F471C08A329105E6
:100CC00009F47FC0089589339105E1F082389105D8
:100CD000C9F08533910509F45DC00895843E9105FE
:100CE000D1F148F4823E910531F1833E910541F105
:100CF00081EE90E00895863E9105C1F1873E910511
:100D0000F1F108952091FF03237009F064C0209150
:100D1000000423FF14C089E290E008952091FF03AE
:100D200020FD45C03091000430FF09C024FD24C0DF
:100D300083EE90E008952091FF0322FDF7CF089500
:100D40002091FF0322FD44C03091000430FD43C0D8
:100D500024FFF5CF11C02091000421FFF0CF809136
:100D6000FF0384FD09C087EE90E008952091FF0302
:100D700023FFE5CF24FFF7CF80E090E00895209196
:100D8000FF0323FD2BC03091000431FFE1CF84EE3F
:100D900090E008952091FF0325FFD1CFBCCF209193
:100DA000FF0325FD1EC02091000423FFC8CF89E367
:100DB00090E008952091FF0326FFC1CF8AE290E0E2
:100DC00008952091FF0326FFBACF81E390E00895B4
:100DD00082EE90E0089580EE90E0089586EE90E037
:100DE000089585E390E008959091FF0392FF10C06D
:100DF00041E0282F2471243009F040E031E0282F11
:100E00002871283009F030E0431711F02CE08227D8
:100E100093FF10C041E0282F2471243109F040E0F5
:100E200031E0282F2871283109F030E0431711F004
:100E30002CE082273091000430FF10C051E0282FB1
:100E40002171213009F050E041E0282F287128302D
:100E500009F040E0541711F029E0822731FF10C05B
:100E600041E0282F2171213109F040E031E0282FA5
:100E70002871283109F030E0431711F029E082276A
:100E800094FD877E08950F931F93CF93DF9309DF1F
:100E9000EC01D23508F04DC0D03508F0C3C0C03EDB
:100EA000D10530F5CD3CD10508F09AC0C83AD1053E
:100EB00078F4C53AD10508F090C0C130D10599F158
:100EC000CE010497813A910570F1C0E0D0E02BC0CB
:100ED000CE01885A91094B97C0F7C85AD0E0CC0F81
:100EE000DD1FCC59DE4F0990D881C02DD4641BC0C2
:100EF000D03490F4D03208F0A8C0C83ED10598F0A4
:100F0000CE0191509F3108F78D2F6EDF082F8C2F67
:100F100090E0C7DE902B54C08C2F90E0C2DEDF70D3
:100F2000C82FD92BD06ACE01DF91CF911F910F919D
:100F30000895C03882E5D807B8F5C03682E5D807ED
:100F400008F056C0C03482E5D807C8F4C03282E544
:100F5000D80708F047C08C2F8695869520E2829F9F
:100F6000C0011124C37021E030E002C0220F331F02
:100F7000CA95E2F7E901C82BD92BDD68D4CF8C2FB5
:100F800086958695877020E2829FC0011124C370E8
:100F900021E030E002C0220F331FCA95E2F7E901D9
:100FA000C82BD92BDC68BFCFC03C82E5D80750F4F2
:100FB0008C2F8F71C03AD24580F5982F84EF906ABC
:100FC000EC01B1CFCE01805C9245809708F07DCFD7
:100FD000DC2FDF71C0EFD06AA6CFA497D064A3CF77
:100FE000D065A1CF8C2F8F71D82FC1EFD06A9BCF46
:100FF0008C2F86958695877020E2829FC0011124F0
:10100000C37021E030E002C0220F331FCA95E2F71F
:10101000E901C82BD92BDA6886CFE6DEC0E0D82FED
:10102000D06281CF8C2F8F71DFDE93E0CC0FDD1F7C
:101030009A95E1F7DF70282F84FF04C090E1899F23
:1010400090011124C22FD0696ECF8D2F8F71CCDE0D
:10105000082F8C2F90E025DE902BEC01E1CF80E073
:101060000895F894E82FE295EF70F0E041A18F70B9
:1010700021E001C0220F8A95EAF7922F90959423E0
:1010800091A392A1822F892B82A378940895E09155
:10109000BD02F091BE02309739F00284F385E02D55
:1010A000309711F060E209950895903218F491118B
:1010B00006C008959C013052303350F00895392F06
:1010C00094FF02C03295307FFB012081232B2083C7
:1010D00090E00895462B22FF0FC0982F92959F70A5
:1010E0008F70892B962F92959F706F70692B942F1C
:1010F00092959F704F70492B982F9623961308C096
:1011000040955FEF90E04823592381E0452B09F09B
:1011100080E008958091D7039091D80380931101C6
:101120009093120108958091DB039091DC036AE0B3
:1011300070E00E940D34609315018091DD0380936F
:1011400016018091E103809303018091E303809372
:1011500002018091E5039091E6036AE070E00E944D
:101160000D34609313018091E70380931401809103
:10117000E903809301018091EB03809300010895BE
:10118000CF93DF938FEF9FEF4430510508F458C0A1
:101190002091FF0321FB882780F990E0880F991F99
:1011A00022FBAA27A0F9B0E0AA0FBB1FAA0FBB1F02
:1011B0008A2B9B2BC22FC1708C2B23FBEE27E0F9CF
:1011C000F0E053E0EE0FFF1F5A95E1F78E2B9F2BB7
:1011D00024FB442740F930E1439FA0011124842BD4
:1011E000952B25FB442740F930E2439FA0011124B1
:1011F000842B952B26FB442740F930E4439FA00124
:101200001124842B952B27FB222720F940E8249FCB
:1012100090011124822B932B20910004422F4170C6
:10122000942B26952170322F330F932BA92FAA0FC1
:10123000AA0BFB0180839183A283A38380E090E0CB
:10124000DF91CF9108959C0143E0369527954A950B
:10125000E1F72E7130E0F901E95EFD4F40815181E7
:101260008F7090E0E82F81E002C0880F991FEA9507
:10127000E2F7611541F0482B592B295E3D4FF901EA
:101280004083518308958095909548235923F5CF45
:10129000FC01AC014B5F5F4F8FEF61E391918927B8
:1012A00028E030E0982F990F87FF09C0892F862703
:1012B00021503040B9F7E417F50781F70895892FD9
:1012C000F7CF0F931F93CF9301E0082E01C0000FBB
:1012D0000A94EAF7C09174039C2F9023A9F490918B
:1012E0007F03969596959695891306C010927F0375
:1012F000109280031092810370DBC027C0937403A7
:10130000CF911F910F91089571DBF7CF382F25EB07
:101310003203C001112497FF04C080589109892F1E
:10132000089580589F4FFBCF8091F8026091DF03B2
:101330007091E00380FF14C020910301269FC0013B
:10134000279F900D11249695879596958795BC01BA
:1013500060387105E8F561157105E1F1862F089592
:1013600081FF0AC020910301269FC001279F900D95
:10137000112496958795EBCF82FF09C080910301D8
:101380009B01829FB001839F700D1124E1CF80915A
:10139000F7028115E9F2909102012091030189176A
:1013A00038F0CB01289FB001299F700D1124D0CFB8
:1013B000289F90011124269FA001279F500D369F42
:1013C000500D1124692F70E0CA010E940D34C0CF66
:1013D0008FE7089581E008958091F80280FF0CC0A6
:1013E0006091010170E07595679575956795611538
:1013F000710541F1862F089581FF06C060910101BA
:1014000070E075956795F3CF6091010182FD0BC087
:101410009091F6029115A1F0609100018091010177
:10142000961738F0682F70E06038710500F38FE789
:101430000895899FC001112470E00E942134F4CFE7
:1014400061E0D8CF81E00895909156038902900120
:10145000112437FF03C08093560308952F373105B9
:101460001CF4980F909356030895A0E0B0E0FC019F
:10147000EA0FFB1FE491E41308C031E02A2F232771
:10148000820F911DFC01849108951196A61778F39F
:1014900080E0089580919102811571F0E091BD0284
:1014A000F091BE02309739F00190F081E02D309735
:1014B00011F00995089580E00895A3E0B0E0E3E617
:1014C000FAE00C94E63320911302309114022817AD
:1014D0003907B1F08093130290931402E091BD029A
:1014E000F091BE02309761F00084F185E02D3097D5
:1014F00039F023E029838A839B83CE0101960995E5
:101500002396E2E00C940234A3E0B0E0EAE8FAE0CB
:101510000C94E633209111023091120228173907FA
:10152000B1F08093110290931202E091BD02F0910C
:10153000BE02309761F00084F185E02D309739F0DC
:1015400024E029838A839B83CE0101960995239603
:10155000E2E00C94023490913901913099F0A4EDBD
:10156000B1E0EFEF90E02C91821759F01196EF3F28
:1015700019F4211101C0E92F9F5F9630A1F7EF3FC9
:10158000C1F408959091FF0397FFE9CFE82FE69506
:10159000E695E695803FA8F7F0E0E652FE4F8770AB
:1015A00021E001C0220F8A95EAF78281822B828393
:1015B0000895FE2FFF0FFF0BEE52FE4FF8CF9091D4
:1015C0003901913021F49091FF0397FD0CC0E4EDB7
:1015D000F1E09191891302C0DF011E9291E0EA3D92
:1015E000F907B9F70895E82FE695E695E695803F67
:1015F000C8F7F0E0E652FE4F9DEF81FD97EF80FFC8
:10160000959582FD929582818923828308958091A8
:10161000380108952FB7F89480910D0290910E0231
:10162000A0910F02B09110022FBF08958091D903AD
:101630009091DA03892B81F0EDDF209175033091D1
:101640007603821B930B9C0181E04091D90350915A
:10165000DA032417350708F480E00895CF93C0918A
:101660007B0380917E03C82B80917703811519F14C
:101670008091D9039091DA03892B19F0D7DF81117A
:1016800005DB80917703C82B80913901813021F4EB
:101690008091FF0387FD12C086E024ED31E090E0E9
:1016A0008150F90140812F5F3F4F41119F5F8111B0
:1016B000F7CF9111EBDA8C2FCF9108958EE12CEDBD
:1016C00031E0EDCF9091000492FF0EC0982F990F5A
:1016D000990F990F962B90937F037FD99BDF80936F
:1016E000800390938103089578C990917703292FFF
:1016F000282359F0809589238093770390E0811106
:1017000089DF80937503909376030895CF93C82F54
:101710008091000482FF0BC0809177038C1739F011
:1017200079DF8093750390937603C0937703CF910D
:10173000089570DF9C019091FB028091FC02982B30
:1017400021F020934602309347029091FD02809150
:10175000FE02982B21F02093440230934502E09141
:10176000BD02F091BE02309759F00680F781E02D5E
:10177000309731F082E08093F90289EF92E0099589
:101780000895611509F440C0E82FED5CE33148F499
:10179000F0E0E752FB4C0C943434C6DD8195809325
:1017A000FC02C7CFC1DDFBCFBFDD81958093FB027B
:1017B000F8CFBADDFBCF10DE8093FD02F2CF0CDE56
:1017C0008195FACF09DE81958093FE02EACF04DE8F
:1017D000FBCF815D990B21E001C0220F8A95EAF7CA
:1017E0008091FA02822B8093FA02DBCF8091F8027B
:1017F00081608093F802D5CF8091F8028260F9CFA2
:101800008091F8028460F5CF4091FB028D3C59F441
:101810008091FC0287FF0DC01092FC02411559F423
:101820001092F70208C08E3C81F48091FC021816D9
:101830009CF3411581F08091FD029091FE02892B6D
:1018400009F0AFCF1092F602ACCF8F3C41F447FFC6
:10185000F0CF1092FB028091FC028115E0CF803D19
:1018600019F41416B4F3E5CF9091FD02893D29F4E3
:101870001916FCF61092FD02DCCF8A3D19F497FF91
:10188000D8CFF8CF9091FE028B3D29F497FFD1CFAE
:101890001092FE02CECF8C3D19F41916CCF3C9CFAD
:1018A000982F915D983078F4815D990B21E001C00B
:1018B000220F8A95EAF7822F80959091FA02892368
:1018C0008093FA02B6CF8D3D31F48091F8028E7F7D
:1018D0008093F802AECF8E3D21F48091F8028D7F87
:1018E000F7CF8F3D09F0A5CF8091F8028B7FF0CF25
:1018F0002FB7F89460910D0270910E0280910F0243
:10190000909110022FBF089580919102811539F0B6
:10191000EFDF462F572FBC01CB01BA010895E8DF56
:10192000DC01CB01409193025091940260919502A9
:1019300070919602480F591F6A1F7B1FEDCF87E7F2
:1019400097E7809300089093010888E19AE00FB62A
:10195000F894A895809360000FBE90936000FFCF2D
:10196000FC0180910302909104028617970748F0CA
:101970006115710529F48091E8008E778093E80065
:10198000CB0140E0009741F4411106C08091E8008E
:1019900082FF30C080E0089520914F022115B1F1FF
:1019A0002530B1F12091E80023FD2EC02091E80000
:1019B00022FDECCF2091E80020FFE4CF4091F3001E
:1019C0002091F200342F009719F02830310558F09B
:1019D00041E02830310509F040E02091E8002E7701
:1019E0002093E800CFCF41914093F10001972F5F02
:1019F0003F4FE9CF80914F02811541F0853041F092
:101A00008091E80083FFC2CF81E0089582E00895CD
:101A100083E00895982F9093E900891771F07091F1
:101A2000EC002091ED005091F00021FD09C09F5F76
:101A3000973089F78093E9000895762F242F50E09E
:101A40003091EB003E7F3093EB003091ED003D7F15
:101A50003093ED003091EB0031603093EB007093E8
:101A6000EC002093ED005093F0002091EE0027FD54
:101A7000DECF08958091FD0187FF13C08091E800BB
:101A800082FF06C08091E8008B778093E80008957C
:101A900080914F028111F2CF089580914F028115FC
:101AA000D9F38091E80080FFF8CF8091E8008E772D
:101AB000ECCF2091E4003091E50095E6A90120915A
:101AC000EC00822F817020FF06C08091E80080FF2B
:101AD00006C080E008952091E80022FD1AC08091A0
:101AE0004F02811589F0853089F08091EB0085FDEA
:101AF0000FC02091E4003091E50042175307F9F23E
:101B00009150E1F684E0089582E0089583E008951D
:101B100081E00895CF93DF93C8EDD0E088818F7E78
:101B20008883E7EDF0E080818160808384E082BF7C
:101B300081E08093FC0188818E7F8883E2EE1082B1
:101B40001092DA00A1EEB0E01C9288818F77888332
:101B500088818068888388818F7D888319BC1092F2
:101B60004F021092FB01109238021092FA01A0EE7F
:101B70008C918B7F8C9388818160888342E060E0C8
:101B800080E048DFA1EEB0E08C918E7F8C93E2EE96
:101B9000F0E0808181608083808188608083E0EED6
:101BA00080818E7F8083888180618883DF91CF915F
:101BB0000895E8EDF0E080818E7F80831092E2004E
:101BC0001092DA001092E100A0EEB0E08C918160FA
:101BD0008C9380818F77808319BCA7ED8C918E7F49
:101BE0008C9380818F7E80831092FC0108959C01EC
:101BF0002115310509F40895215031098FE99FE03D
:101C00000197F1F700C00000F3CFA0E0B0E0EBE0F7
:101C1000FEE00C94DE337C016B015A01809174026A
:101C20000AE010E08A3010F001E010E0C1E0D0E0FE
:101C3000B601C701F5010995811115C021960C1750
:101C40001D078CF0CC9F9001CD9F300D300D1124DD
:101C500080E090E045E34A95F1F700000196821795
:101C60009307C1F7E5CFCDB7DEB7EAE00C94FA33BE
:101C70000F931F93CF93DF93EB018A0190914F0253
:101C8000943059F58093E9008FEF9091E80095FD2D
:101C900006C095ED9A95F1F700008150B1F780915B
:101CA000E80085FF1AC005DF811112C08091E800AD
:101CB00085FD06C08091E8008E778093E800F3CF21
:101CC00088818093F1000150104011F02196EECFF1
:101CD0008091E8008E778093E800DF91CF911F918B
:101CE0000F910895603229F440E250E0BC0182E097
:101CF000BFCF0895CF93DF93EC0148E050E0BC01E3
:101D000081E0B6DF88E0FE01A5E0B2E001900D922F
:101D10008A95E1F7DF91CF91089540E250E0BC0150
:101D200084E0A6CF46E050E0BC0184E0A1CF43E0D0
:101D300050E0BC0184E09CCFFC016081718184E0B3
:101D400090E00C94BC349091000492FB222720F97F
:101D5000281751F080FB92F9909300048FEF93E0E5
:101D6000EBDF82E00C941E0608951F93CF93DF9360
:101D7000122F8430D8F46A30C8F44830B8F490E1B7
:101D8000699FE0011124C40FD11DC40FD11D90EA39
:101D9000899FC00DD11D1124632FCE0189960E9409
:101DA000A234612FCE018A960E94A234DF91CF9196
:101DB0001F91089580913901813061F58091FF0371
:101DC00087FF28C04BDC8093DB0140E250E06DE9E7
:101DD00072E08AED91E00E945934892BD1F080E2C3
:101DE000EAEDF1E0ADE9B2E001900D928A95E1F7FC
:101DF000E091BD02F091BE02309759F00480F58168
:101E0000E02D309731F086E08093DA018AED91E0A1
:101E10000995089523DC8093D20148E050E06FEBF0
:101E200072E082ED91E00E945934892B91F388E0B1
:101E3000E2EDF1E0AFEBB2E001900D928A95E1F7AF
:101E4000E091BD02F091BE02309719F30280F38158
:101E5000E02D3097F1F282ED91E0DACF811519F0A3
:101E60000E943806A7CF0895811531F090917E0326
:101E7000982B90937E039ECF0895811519F00E94B0
:101E80003E0698CF0895811539F0809590917E0394
:101E9000892380937E038ECF0895809161038115FD
:101EA00021F082E2F0DF109261030895CF93C82FF2
:101EB0008115C1F08450813A70F5809139018130EB
:101EC00021F48091FF0387FD0FC0E4EDF1E08081F4
:101ED000C817E9F0319681E0EA3DF807C1F78C2F89
:101EE0003ADB68DFCF910895EC2FE695E695E6950D
:101EF000F0E0E652FE4F828190E04C2F477021E0E7
:101F000001C0220F4A95EAF78223892B41F38C2FD7
:101F100056DB50DFE4CF8C2F805E883050F481E0B8
:101F2000C1FD84E0C0FD880FC2FD82950E94380685
:101F3000D8CF8C2F855A833028F48C2F8452990B5C
:101F4000BCDAD0CFEC2FE85AEB3148F4F0E0EE0FDA
:101F5000FF1FE656FE4F80819181D6DAC3CF8C2FCA
:101F60008D5C833108F0BECF61E08C2F0ADCBACFE4
:101F7000CF93DF93EC01805E9109089720F064E332
:101F80007FE0209711F46EE27FE0CE010E94910481
:101F90008C2F8CDFDF91CF910895611529F020916E
:101FA0007E03226020937E039C013052303308F47C
:101FB00090E0DECF811549F1982F9450913A10F4BA
:101FC000FEDAF8CE982F905E983058F4982F81E082
:101FD00091FD84E090FD880F92FD82950E943E065F
:101FE000F0CF982F955A933018F480E090E065CAAE
:101FF000982F985A9B3118F480E090E085CA982F6A
:102000009D5C933110F460E0BCCB0895CF93DF93D7
:10201000EC01D0DFCE01805E9109089720F063E4E7
:102020007FE0209711F46DE37FE0CE010E949104E0
:10203000DF91CF9108951F93CF93DF93182FC09115
:10204000F703D091F803893321F0C091F503D091C3
:10205000F603812F2BDF209731F4812FABDFDF9147
:10206000CF911F9108958FE99FE00197F1F700C08C
:1020700000002197F0CFFF920F931F93CF93DF9330
:10208000C62FD42FF22E8115A1F060937203C2DA0D
:10209000809315029093160281E0C1FD84E0C0FD9B
:1020A000880FC2FD8295DADECDB7DEB7E5E00C948D
:1020B000FF338091720368132DC0009115021091B7
:1020C0001602A8DA801B910B883C910518F51D2F8C
:1020D000105ECD1791F0C77001E0802F01C0880F0E
:1020E000CA95EAF7CADE183040F48D2F877001C018
:1020F000000F8A95EAF7802FB1DE8F2D9CDF81E0FB
:10210000D1FD84E0D0FD880FD2FD8295183060F6B5
:10211000B4DECACF81E0C1FD84E0C0FD880FC2FDFE
:102120008295F6CF10927B0380913901813001F5C1
:102130008091FF0387FF1CC0ECEDF1E08EE111926E
:102140008A95E9F780E090E0B8D980E090E0DCD9AA
:1021500010927E032FDEE9EFF2E086E011928A957D
:10216000E9F71092F7021092F6021092F802E1CA13
:10217000E4EDF1E086E0E3CFD5DF8FEF94E32CE0F0
:10218000815090402040E1F700C0000088E19AE0D3
:102190000FB6F894A895809360000FBE90936000EE
:1021A000FFCFCF93DF93EC018091D702883010F0FE
:1021B000B9DF80E0E82FF0E0EE0FFF1FE953FD4F9D
:1021C0009E01C08331838F5F8093D702DF91CF91CF
:1021D0000895CF93DF938FEF9FEF4430510590F038
:1021E000FB01D081C1819EDFD093FF03C37080913A
:1021F00000048C7FC82BC09300048FEF93E09CDD1C
:1022000080E090E0DF91CF910895AAE2B0E0EBE0AA
:10221000F1E10C94E5338DEF91E0FC010196209102
:10222000F100208322E085309207B9F78091FE010A
:10223000893009F457C0C8F4823009F4B3C0833040
:1022400009F483C0813081F18091E80083FFE7C009
:102250008091FD019091FE019A3008F0E0C0E92FD5
:10226000F0E0E451FB4C0C9434348A3009F48AC019
:102270008B3051F78091FD01813231F7809101025D
:1022800090910202892B01F78091E800877F80936B
:10229000E800F0DB81E09091FF01911101C080E046
:1022A000809339013FDFD0CF8091FD01813A61F603
:1022B0008091E800877F8093E800809101029091EF
:1022C0000202892B59F060E080E090E070E048DB8A
:1022D0008091E8008B778093E800B6CF68E085E0D6
:1022E00092E0F4CF8091FD01813209F0ADCF809171
:1022F0000102909102028D7F892B09F0A5CF809178
:10230000E800877F8093E8008091E80082FF18C092
:102310002091F3008091F200922F029731F4809186
:10232000F100813011F0863021F48091F10080932A
:1023300038018091E8008B778093E8009BDB84CFA5
:1023400080914F028111E0CF7FCF8091FD01813AD2
:1023500009F07ACF8091010290910202892B09F055
:1023600073CF8091E800877F8093E8008091E80038
:1023700080FFFCCF809139018093F1008091E800CB
:102380008E77DACF8091FD01813209F05DCF8091A7
:10239000E800877F8093E8006DDB809100028093E6
:1023A000370152CF8091FD01813A09F04DCF8091E4
:1023B000E800877F8093E8008091E80080FFFCCFF1
:1023C00080913701D9CF803889F0823841F58091EA
:1023D00001028F70873018F58093E9008091EB003F
:1023E00085FB882780F91092E90006C080913802A9
:1023F000880F9091FA01892B9091E800977F909334
:10240000E8008093F1001092F1008091E8008E774F
:1024100023C0811116C08091FF01813009F18091A4
:10242000E80083FF0AC08091E800877F8093E8007E
:102430008091EB0080628093EB00AA96E3E00C941D
:102440000134823061F78091FF01811579F010929B
:10245000E9008091E800877F8093E8000BDBDFCF05
:10246000933009F080E080933802F1CF809101022F
:102470008F70282F2150263090F68093E90020910C
:10248000EB0020FFE4CF933031F48091EB008062C9
:102490008093EB00DCCF9091EB0090619093EB0088
:1024A00021E001C0220F8A95EAF72093EA001092FA
:1024B000EA008091EB008860EBCF8111B0CF809172
:1024C000FF018F77182F8091E3008078812B809314
:1024D000E3008091E800877F8093E800CBDA809169
:1024E000E80080FFFCCF8091E30080688093E300E8
:1024F00083E0111101C082E080934F0290CF805899
:10250000823008F08CCF8091FF01909100028C3DC9
:1025100023E0920789F583E08A838AE289834FB7B3
:10252000F894DE01139620E03EE051E2E32FF0E064
:1025300050935700849120FF03C082958F703F5FB6
:102540008F708A30B8F0895C8D931D922F5F243193
:1025500069F74FBF8091E800877F8093E8006AE2C7
:1025600070E0CE010196FCD98091E8008B778093D2
:10257000E80055CF805DE8CF292F30E023303105CA
:1025800009F44EC078F52130310509F486C08BE599
:1025900090E0E8ECF1E02230310509F040CF2091E5
:1025A000E800277F2093E800209103023091040285
:1025B0008217930708F49C0140E02115310509F0CA
:1025C00071C041116FC08091E80082FDCDCF809134
:1025D0004F02811549F2853039F28091E80083FF7E
:1025E000F2CFC2CF809101029091020221323105D7
:1025F00009F444C02232310509F011CF833091052E
:1026000008F00DCFFC01EE0FFF1FE75BFE4F0190BE
:10261000F081E02D8A5B9E4FDC018C9190E010C030
:10262000282F30E0823011F12330310568F4232B5C
:10263000A9F4E9E7F2E0E4918E2F90E0E9E7F2E017
:10264000009709F4ECCEABCF09F0E9CEE5E3F2E078
:10265000E4918E2F90E0E5E3F2E0F2CFE5E6F2E0E0
:10266000E4918E2F90E0E5E6F2E0EACFE3E5F2E0D8
:10267000E4918E2F90E0E3E5F2E0E2CF8330910524
:1026800008F0CDCE880F991FFC01E15BFE4F019051
:10269000F081E02D89E090E082CF82E190E0E3E2FA
:1026A000F2E07DCF80914F02811509F45DCF853036
:1026B00009F45ACF8091E80083FD56CF8091E8005D
:1026C00082FD81CF8091E80080FF77CF4091F300B9
:1026D0008091F200942F2115310519F08830910571
:1026E00050F041E0089709F040E08091E8008E77D3
:1026F0008093E80062CF44914093F10031962150DD
:1027000031090196E8CF803809F089CE8091E80040
:10271000877F8093E8008091FB018093F10075CE64
:1027200081117DCE8091FF01182F823008F077CE85
:102730008091E800877F8093E8001093FB019AD98D
:102740001115D9F084E080934F0242E061EC81E002
:1027500061D942E261EC84E05DD942E261EC82E061
:1027600059D942E260EC83E055D980914F02843020
:1027700051F482E080933A0152CE8091E30087FDCC
:10278000E1CF81E0E0CF81E0F5CF80913B01877F11
:1027900080933B0180916103811105C080917E038C
:1027A0008D7F80937E0380913B0184FF06C08F7EE6
:1027B00080933B0182E00E94380680913B0185FFB7
:1027C00006C08F7D80933B0180E20E943806F2CAEA
:1027D000A0E0B0E0EEEEF3E10C94E133EC018B010C
:1027E000D42E80913B0182FF5FC0E0906703F090A0
:1027F0006803EC16FD0619F0209709F055C080918A
:102800003B018B7F80933B01C1E081FD10C0809133
:102810006503909166039801281B390BC1E08091F4
:102820001101909112012817390708F4C0E0809136
:102830003B01C0FB81F980933B016C2FC7010E94D3
:10284000230980917B0381FF08C080913B01806157
:1028500080933B0182E00E943E0680917B0385FFCE
:1028600008C080913B01806280933B0180E20E941E
:102870003E066C2FC70191DBD11429F08091F20341
:102880008076803219F18091F5039091F603AFD9EB
:1028900080916703909168039C013052303308F4B3
:1028A00090E0B4DB72DF0EC0CE019052903398F40A
:1028B0008C2F90E0ABDB8091670390916803C81781
:1028C000D90781F30093650310936603CDB7DEB794
:1028D000E7E00C94FD33CE01EDCFAFE0B0E0E3E7ED
:1028E000F4E10C94DD33FE013196DF018AE01D92A4
:1028F0008A95E9F787E5C82E81E0D82E7F01AE2EB4
:102900009F2C04E611E0F60181916F018F3F09F4DD
:102910003DC0F894E82FE295EF70F0E021A18F70B0
:1029200041E001C0440F8A95EAF7922F942B91A3BE
:1029300092A1842F8095892382A3789400C0ECE52E
:10294000F1E031E0B12C21912F3F79F0A22FA29537
:10295000AF70A05EB0E08C9190E02F7002C09595B2
:1029600087952A95E2F780FF7FC080E0B82A330F71
:102970000E171F0741F7F60182918F3F11F00E9459
:10298000310880EA8A95F1F7F701B0828FEFE81AF3
:10299000F80A8CE5C81681E0D80609F0B4CF4AE001
:1029A00050E06A2D792D87E892E00E945934009713
:1029B00049F02AE0EA2DF92DA7E8B2E001900D9246
:1029C0002A95E1F70091860210E004581D4F892BEB
:1029D00009F44CC081E080937B020E940A0B809333
:1029E000790290937A0280919102811509F498C03E
:1029F0007E018BE0E80EF11CF70185E011928A95CB
:102A0000E9F7809174028A3008F054C043E257E13C
:102A1000B701C801FAD8811509F470C041EC57E13B
:102A2000B701C801F2D8811509F468C046EC56E137
:102A3000B701C801EAD8811509F460C01092740288
:102A40008091780290E045E050E0B70184589D4FB6
:102A50000E94593421E020937702892B09F041C06C
:102A60002F96EBE00C94F933832F80CF80917B027B
:102A7000811509F4B8CFE0907902F0907A020E94B3
:102A80000A0B8E199F09059708F4ADCF45E050E079
:102A900067E872E0C8010E945934892B41F085E053
:102AA000E7E8F2E0D80101900D928A95E1F71092E3
:102AB0007B0299CFC0907502D09076020E940A0BDB
:102AC0008C199D09843F914008F0A0CF8091770236
:102AD000811531F2F70185E011928A95E9F710929C
:102AE0007702A0917802B0E0A458BD4F85E0FE01C6
:102AF0003B9601900D928A95E1F7B2CF80917402D6
:102B00008F3F39F40E940A0B8093750290937602EE
:102B1000DDCF8F5F809374028A3008F491CFF2CFBB
:102B2000E0907802F12CC70184589D4F7C0185E02C
:102B3000F801A9E5B2E001900D928A95E1F789E5E7
:102B400092E00E9448098093580285E0EEE5F2E0A9
:102B5000D70101900D928A95E1F7C0906302D09061
:102B60006402E0906502F09066028091700290919C
:102B70007102A0917202B0917302C816D906EA06DA
:102B8000FB0609F46DCFC0927002D0927102E09200
:102B90007202F09273020E94780CC61AD70AE80AF1
:102BA000F90AC0929302D0929402E0929502F092B8
:102BB000960256CF9B01BA01FC013296E4914E2F4A
:102BC00050E06E17710550F00496FC016591749108
:102BD000C9010E94663480E090E008958FEF9FEF76
:102BE0000895EF92FF921F93CF93DF9300D000D010
:102BF000CDB7DEB77B01FC013396149119821A829E
:102C00001B821C82452B61F48FEF9FEF0F900F907A
:102C10000F900F90DF91CF911F91FF90EF9008954B
:102C200044E050E09E012F5F3F4FB901C3DF0196A2
:102C300059F381E090E002C0880F991F1A95E2F7DE
:102C4000A92FAA0FAA0BBA2F49815A816B817C81C7
:102C500084239523A623B72321E0892B8A2B8B2B52
:102C600009F420E0F701208380E090E0CFCFA0E0DE
:102C7000B0E0EDE3F6E10C94DF33EC0198819130A4
:102C8000D0F009F03EC08981813021F48A812396F9
:102C9000D2D9F4CF823021F48A81239607D9EECF9E
:102CA000833021F48A81239685D9E8CF843041F09E
:102CB00022968111E3CFCDB7DEB7E9E00C94FB3368
:102CC0008A81239620E030E09AE0482F4053550B4C
:102CD0004A30510560F02115310559F3EFE9FFE065
:102CE0003197F1F700C0000021503109F4CF929FD5
:102CF000B001939F700D11249A01260F371F8991FF
:102D0000E4CF2196E92FF0E0E355FD4F8491B82EF2
:102D1000292F26952695269530E0F901E356FD4F9B
:102D2000E4909770F12C092E02C0F594E7940A9470
:102D3000E2F7F901E357FD4FC490D12C092E02C0F0
:102D4000D594C7940A94E2F723583D4FF9010491B2
:102D500010E002C0159507959A95E2F7E0FE02C0D3
:102D600081EEA4D8C0FE02C086EEA0D88B2D9ED8DE
:102D70008B2D20D9C0FE02C086EE1CD9E0FE02C019
:102D800081EE18D900FF7ACF8CE282CFCF92DF920A
:102D9000EF92FF921F93CF93DF9300D000D0CDB777
:102DA000DEB7C0905002D0905102E0905202F090F5
:102DB00053020E94780CDC01CB018C199D09AE09ED
:102DC000BF0911E084369105A105B10578F10E9493
:102DD000840CDC01CB010296A11DB11D89839A836D
:102DE000AB83BC838091300190913101885A9D4F13
:102DF00020912F01422F50E0253008F044E09E0141
:102E00002F5F3F4FB9010E94663483E090E00E943B
:102E10006833182F811551F00E94780C609350028E
:102E2000709351028093520290935302812F0F901E
:102E30000F900F900F90DF91CF911F91FF90EF9027
:102E4000DF90CF900895AF92BF92CF92DF92EF9232
:102E5000FF921F93CF93DF9300D000D000D0CDB767
:102E6000DEB75B0180E090E00E946833182F811587
:102E700009F461C080911A01482F50E0811141E0AE
:102E800060911B0170911C01685A7D4FCE0106961E
:102E90000E946634C0906C02D0906D02E0906E0289
:102EA000F0906F020E94780CDC01CB018C199D0917
:102EB000AE09BF0984369105A105B10538F489E54D
:102EC00092E00E9448099E818917A9F181E090E073
:102ED0000E9468338115E1F180912201482F50E072
:102EE000863008F045E06091230170912401685A12
:102EF0007D4FCE0101960E94663489E592E00E94E2
:102F000048099E81891324C00E94780C60936C024A
:102F100070936D0280936E0290936F0285E09E0124
:102F20002F5F3F4FF901A7E6B2E001900D928A951D
:102F3000E1F781E00EC085E0E9E5F2E09E012F5F58
:102F40003F4FD90101900D928A95E1F71111E6CF1B
:102F500080E095E0E7E6F2E0D50101900D929A95C8
:102F6000E1F70F900F900F900F900F900F90DF915F
:102F7000CF911F91FF90EF90DF90CF90BF90AF90D7
:102F80000895A0E0B0E0E7ECF7E10C94E033EC0149
:102F900045E050E06EE572E00E9459348C01C0902B
:102FA0005402D0905502E0905602F09057020E94D1
:102FB000780CDC01CB018C199D09AE09BF09843660
:102FC0009105A105B10518F4C801892B01F1809183
:102FD000280190912901885A9D4F20912701422F65
:102FE00050E0263008F045E0BE010E94663482E0E1
:102FF00090E00E946833811559F00E94780C60932C
:10300000540270935502809356029093570281E0C8
:10301000CDB7DEB7E8E00C94FC330F931F93CF934A
:10302000DF9307ED13E0C9EAD2E0CE010E948634B7
:10303000F80161918F01681719F0CE010E94A23446
:103040002196C13D82E0D80781F7DF91CF911F9192
:103050000F910895FC013296E4912E2F30E04E1727
:10306000510558F00496FC0185919491A9010E94A4
:103070006634D3DF80E090E008958FEF9FEF0895EE
:10308000AF92BF92DF92EF92FF920F931F93CF9375
:10309000DF9300D000D0CDB7DEB77C015B01FC012F
:1030A0003396D49019821A821B821C82452B81F49C
:1030B0008FEF9FEF0F900F900F900F90DF91CF91B8
:1030C0001F910F91FF90EF90DF90BF90AF90089508
:1030D00044E050E0CE010196BC01C7016BDD0196D2
:1030E00039F381E090E00D2C02C0880F991F0A94FB
:1030F000E2F780959095A92FAA0FAA0BBA2F4981C4
:103100005A816B817C8184239523A623B723F50103
:103110002081022F017010E002C0000F111FDA940D
:10312000E2F7212F220F220B802B912BA22BB22B07
:1031300089839A83AB83BC8344E050E0CE0101963F
:10314000BC01C70187DFB6CF0F931F93CF93DF93E7
:1031500007ED13E0C9EAD2E0CE010E948634F801FF
:1031600081938F012196C13D82E0D807A9F7C7E17D
:10317000D5E0FE0185919491009711F0FC0109952D
:103180002C9686E0CF34D807A1F7DF91CF911F911D
:103190000F9108951092F1031092F2038FEA809339
:1031A000D7031092D80325E02093F30388E893E136
:1031B0008093D9039093DA038AE08093DB03109223
:1031C000DC0344E14093DD031092DE0348E04093CA
:1031D000DF031092E0038093E1031092E2036EE1BB
:1031E0006093E3031092E4038093E5031092E603F7
:1031F00080E58093E7031092E8034093E90310927F
:10320000EA0348E24093EB031092EC0342E340935D
:10321000ED031092EE0348EC4093EF031092F0039D
:103220001092F4034093FB031092FC031092F503F9
:103230001092F6038093F7031092F8032093F9039A
:103240001092FD031092FE03E8DE0E94921010928D
:10325000FF031092000480E08460809300048FEFED
:1032600093E00E949C0E70CF0F931F93CF93DF9338
:10327000843000F56A30F0F44830E0F490E1699F62
:10328000E0011124C40FD11DC40FD11D90EA899F04
:10329000C00DD11D1124CE0189960E948634082FBD
:1032A000CE018A960E948634902FDF91CF911F9194
:1032B0000F91089580E090E0F8CF462F2091990279
:1032C00030919A02232B89F4703F39F4603F69F4FE
:1032D000809197029091980208957A3030F4683086
:1032E00020F4843010F4672FBFCF80E090E0089581
:1032F000CF92DF92FF920F931F93CF93DF936C01D6
:1033000000917A0380917903082BC3E0D0E010E0AC
:10331000C8010C2E02C0959587950A94E2F780FDAE
:103320000CC02197A8F7F12C8F2DDF91CF911F9121
:103330000F91FF90DF90CF900895FC2EB6018C2F57
:10334000BCDF0E944307019761F3EECF0F931F93F9
:10335000CF938C01611579F0411569F0C9DFC82F51
:10336000682FC8010E940105B8018C2FA6DFCF91FC
:103370001F910F9108950E943605C82FF5CFFC01CB
:10338000462F278130852115310529F465818081FB
:103390009181DCDF9C01C9010895CF93DF93EC019B
:1033A000A7DFBE018ADF0E944307DF91CF91089516
:1033B000FC018481811541F087819085009729F077
:1033C0000E9443070C94C304089580819181E5DF36
:1033D000F9CF6F3F71058105910528F4CB018F5F0F
:1033E0009C4F0C94863480E00895A9E0B0E0EBEFA8
:1033F000F9E10C94D6337C01FC018481811509F438
:1034000005C160E0C701BBDFF7012681203170F400
:10341000409185033091840343132CC03091D30332
:10342000311521F03091D403303120F1F70135818D
:1034300031110CC0903508F053C0903208F067C0CD
:10344000883E910588F4803E9105A0F48093FF02A8
:1034500090930003F701828193818093820390937C
:10346000830310923C0106C09C0131503F3170F73C
:103470008111ECCF61E0C70182DF8C018091600394
:1034800081114BC0F7018581811509F476C0103593
:1034900008F05FC0103208F0BDC0011587E01807C2
:1034A000E1F1B8F5C801805E91090897B0F180910B
:1034B0007E0390917B03892B90917703892B99E070
:1034C000F701ACE4B3E001900D929A95E1F7009317
:1034D0005303109354031092560380934B031DC063
:1034E000803E22E5920768F4803822E5920708F0D2
:1034F000C1CF9C01205232452032310508F0A6CFC1
:10350000B9CF9C0127573C4722303105F7CF2031F6
:10351000F5CF01158FE0180751F6F70145814111EC
:1035200060C103378CE7180709F461C0023A82E5ED
:10353000180709F45EC208F037C2C80190529032F1
:1035400008F44BC2013E110509F453C2053E1105B2
:103550002EC2003E92E5190748F4003682E51807AE
:10356000E0F6C801925580349105A0CF9801275705
:103570003C472530310508F09ACF09379CE71907F9
:1035800009F04BC02091530330915403232B79F160
:103590008115A1F081E00E94240A80914B030E94D2
:1035A000340F89E0ECE4F3E0A2E0B3E001900D9287
:1035B0008A95E1F7809156038093010386E0F70135
:1035C000A2E0B3E001900D928A95E1F780910103AA
:1035D0008093600382E093E008DF10926003F701BC
:1035E0008581811104C080914B030E94430F80911B
:1035F0007F03877059F0F7018581811539F080913B
:10360000000482FF03C082E00E941E062996E2E1C8
:103610000C94F2338681803149CF0A379CE7190731
:1036200009F07BCF811509F4B1C0C0905303D0904D
:10363000540310914B031983CE010196BC01C601BE
:103640000E9455082C01898188877BE0672E73E0F2
:10365000772EE1E0AE2EB12C8FEF8F83F30107813F
:1036600003FF4DC020803180828093804214530438
:10367000A9F484818987202F4681682F88850E943C
:103680006A08811559F089850E94AE049F819817B8
:103690002CF4F30125815401B22A8F834814590474
:1036A000C1F401FF16C0F30185818987202F46816F
:1036B000682F88850E946A08811559F089850E94C3
:1036C000AE049F8198172CF4F30124815101B22A92
:1036D0008F8300FF14C08F818F3F89F481E0A8168B
:1036E000B10469F4202FF301468160E088850E94CF
:1036F0006A08811521F0F30185815401B82A88E018
:10370000680E711C8BE493E08615970509F0A6CF2F
:1037100081E0A816B10481F5012F02950F70012BED
:103720000F7081E0103108F480E080FD006180E2DC
:10373000D816E0F4D1104EC09C2C802F8D704C2DEB
:10374000811509F44AC06AE08BED98E00E94350AC1
:10375000A82E811109C0492D6EE185EB98E00E94E9
:10376000350AA82E811531F0B02E06C0C601905240
:10377000903388F1A12CB12CE7E5F3E087E01192BA
:103780008A95E9F7A0925E03B0925F0380915E0391
:1037900090915F03892B09F42ACFF7018581811568
:1037A00039F08FEF0E94240A8091560380935503CD
:1037B00086E0F701A7E5B3E001900D928A95E1F765
:1037C000809155038093600387E593E00EDE1092AD
:1037D00060030DCF0D29D12CAFCF68E083ED98E0C9
:1037E000B5CFC80197578038910508F0C3C7083096
:1037F00008F0FDCE6EEF70E080E090E0EADD811130
:10380000F6CEA12CB12C4501011139C08E010F5FFC
:103810001F4FF80184E011928A95E9F7B401C501C0
:10382000D8DD8983811509F4E2CE240135019FEFAB
:10383000491A590A690A790A8130F1F4B201C301BF
:10384000C8DD382E8A83811509F4D1CEB401C501B3
:103850006E5F7F4F8F4F9F4F232D2150233028F5D0
:1038600023E0820E911CA11CB11C24013501B1DDA5
:103870008B83811509F453C0C801F9D950C08FEF6B
:1038800088169104A104B10409F4B1CEB401C501B4
:10389000A0DD9FEF891A990AA90AB90A8111EFCF11
:1038A0000150B2CF2B013C013AC0232D25502330CB
:1038B000C8F52401350123E0420E511C611C711C26
:1038C00088DD8B83811559F184E0880E911CA11C41
:1038D000B11CB201C3017DDD8C838115F1F0CB8079
:1038E000DC8081E0C8168FEFD80610F0DC2CC12CEC
:1038F000832D863079F0873049F0C6010E94BB28BD
:103900008091F5039091F6030E94F70DC6010E9485
:10391000DA2803C0C6010E94BB28240135014201F8
:10392000530177CF232D243009F0BCCF52DDD82EA0
:10393000811509F45CCEB401C5016D5F7F4F8F4FD7
:103940009F4F47DD811509F452CE94E0890E911CFA
:10395000A11CB11C24013501282F2150330B4FEF3E
:10396000429FC001439F900D11242D2D2150330BF8
:10397000820F931F009799F20197EFE9FFE03197CB
:10398000F1F700C00000F6CF10927B030E944606BC
:103990000E940A0B88579C4E8093620390936303A6
:1039A00081E08093610323CE023B82E51807C1F5D5
:1039B00025EE30E0277081E001C0880F2A95EAF7F4
:1039C000682F20916403309161033115D1F04115C6
:1039D00099F0282B209364030ACEF7018681803169
:1039E000F8F4812F8F7190E08230910511F04297A9
:1039F000DECF21EE30E0DECF80958223809364031A
:103A0000F6CD322F362361F0982F90959223909324
:103A100064030E943E06F7018581811509F4E7CD14
:103A200080916103811509F46EC0C0907B03D09032
:103A300077030E940A0B88579C4E809362039093F1
:103A40006303F7018581811509F45DC08D2D8C29F3
:103A50008D7909F0B1C0103588F5103408F0B3C085
:103A6000063E110509F44FC0C80190529032D8F5B6
:103A70008681803108F499C0802F90E020913B012D
:103A800020FFA9C02DEF209530917E0323232093A2
:103A90007E038D32910571F008F0AEC08832910539
:103AA00008F09BC08E31910508F099C004974A97A1
:103AB00008F082C082E080937E0391C0003E82E5E0
:103AC0001807C0F4003C82E51807E8F4003A82E5E4
:103AD000180758F4003682E51807A8F4C801925573
:103AE0008034910580F0C801C9CF043B82E51807F6
:103AF00051F0F9CF09378CE7180708F052C00737A3
:103B00008CE7180780F38091F20380FFCEC00E94FB
:103B10000A0B6C01F7018581811509F4D7C08091EA
:103B20003B0182FF06C040E0B60180E090E00E94C9
:103B3000E81304318CE7180709F4C4C005318CE799
:103B4000180709F45FC003318CE7180709F4A0C017
:103B5000C8019052903308F05FC010926703109232
:103B60006803F7019581911509F40FC21092720351
:103B7000980130572332310508F007C284E090E005
:103B80000E948E348093FF0390930004F801E1506B
:103B9000F047E232F10508F042C1EA50FB4C0C94C8
:103BA00034340B378CE71807A3CF812F8F71843102
:103BB00009F4A9CF863161F00E944D0F8091640312
:103BC0000E943806A0CF8681803108F055CF9BCF68
:103BD00086EE92E153CF2FEF56CF8A9769F7809107
:103BE0006403811531F080917E0392E089278093F0
:103BF0007E030E94DA0E87CF8C34910581F38D32DB
:103C00009240ECCF90913B01892F8E7F90FF816095
:103C100080933B010E94C51380913B0180FF45C00A
:103C20000832110508F067C00E31110508F074C0A4
:103C3000C80104974A9788F58091F20384FD2DC04E
:103C4000F7018581811509F4C7C090917B038091AC
:103C50007703282F292B822E2D7F09F462C0109222
:103C60006703109268032091F20321FD5AC060E0BF
:103C7000C8010E94230960E0C8010E94CD0F809115
:103C800077038D7F0E94860B82E00E941E06AFCCD8
:103C900080913B01816080933B01F7018581811513
:103CA00021F01092670310926803F7018581F801F3
:103CB000E851FC47E730F10508F053CFE85EFA4CD5
:103CC0000C94343480913B018E7FA2CF80913B01D4
:103CD0008F7E013E110531F0053E110531F48091D2
:103CE0003B018F7D80933B0197CFC8019052903369
:103CF00008F092CF36CF0933110558F40D32110573
:103D000018F40B32110549F68091F20382FDC5CFFC
:103D100097CF04361105F7CF8091F20383FDBDCF15
:103D20008FCF29E0F701A9E6B3E001900D922A9523
:103D3000E1F710926B0310926C03A0906703B090B0
:103D400068030A151B0591F52091F20325FF2EC08B
:103D500030913B0131FB992490F831FF02C026FFDE
:103D600025C02091650330916603A601421B530BC9
:103D7000483C5105D8F491FF08C080913B01806117
:103D800080933B0182E00E943E0680917B0385FF89
:103D900008C080913B01806280933B0180E20E94D9
:103DA0003E06692DC5010E94CD0F21CC8D7F0E945A
:103DB000860B0093670310936803C0926503D0924B
:103DC0006603882D82708460982F80913B01897FE3
:103DD000982B90933B0158CF40E0B601C8010E9458
:103DE000E81305CC26E241EE61EE0E943B10FFCBCA
:103DF00027E245EE65EEF9CF26E241EE60EEF5CF23
:103E000027E245EE64EEF1CF26E241EE62EEEDCF21
:103E100027E245EE66EEE9CF28E241E0EBCF809164
:103E2000FF0381608093FF038FEF93E00E949C0E5D
:103E30000E949210DCCB8091000488608093000483
:103E4000F3CF8091FF038260EDCF8091FF03846008
:103E5000E9CF8091FF038860E5CF80910004816005
:103E6000EDCF809100048260E9CF8091FF038061F3
:103E7000D9CF8091FF038062D5CF8091FF0380640A
:103E8000D1CF0E9492108091FF038068CBCF8091A8
:103E9000FF038C60C7CF809100048360CFCF8091F7
:103EA000FF038E7FBFCF80910004877FC7CF8091B3
:103EB000FF038D7FB7CF8091FF038B7FB3CF8091BE
:103EC000FF03877FAFCF809100048E7FB7CF8091B3
:103ED00000048D7FB3CF8091FF038F7EA3CF8091AD
:103EE000FF038F7D9FCF8091FF038F7B9BCF0E942D
:103EF00092108091FF038F7795CF8091FF03837F8E
:103F000091CF809100048C7F99CF9091FF03892FEE
:103F10008B7F92FF8460877F92FF886083CF809140
:103F20000004982F909590FB80F990FB81F986CF43
:103F30009091FF03892F8F7B96FF806473CF0E943F
:103F400092109091FF03892F97FB87F980586ACFD1
:103F500061E08EE090E00E94A23466CF60E0F9CF8D
:103F60009091FF03892F8F7E94FF80615BCF9091AA
:103F7000FF03892F8E7F90FF816054CF90910004C2
:103F8000892F877F93FF886059CF06318CE7180708
:103F9000C9F580917B033091F10330FD24C0282FB7
:103FA0002A7A31FF04C0482F417109F020E032FF26
:103FB00004C0482F487809F020E033FF03C0827224
:103FC00009F020E09115A1F081E0211101C080E00D
:103FD0008093730385E3211101C089E20E94AB0A3B
:103FE0000E94DA0E04CB282F2474C9F220E0D9CF26
:103FF00080917303811521F085E30E94DF0AF0CFE1
:1040000089E2FBCF07378CE71807F1F008378CE718
:10401000180729F19801205E32452032310520F53C
:10402000911122C00F7181E090E002C0880F991FAA
:104030000A95E2F78C01682F83E090E00E94A23499
:10404000802F0E94E704D3CA81E0911551F00E94AD
:10405000ED0443E062E081E00E946805C8CA82E0A6
:10406000F4CF0E94F604F5CF4091740380917A0357
:10407000282F20953FEF70E02423372321153105A9
:1040800019F04823409374030B372CE7120741F4CF
:10409000911509F4ACCA0E94B1040E946109A7CA33
:1040A000003482E5180708F04DC0003282E5180799
:1040B00008F04FC0103548F5103408F05DC0911578
:1040C00009F471C00A358CE7180709F4D2C008F06A
:1040D000B6C001308CE7180709F4C9C003308CE77B
:1040E000180709F4BEC001158CE7180709F05BC07A
:1040F0000E9492108FEF94E32CE08150904020407A
:10410000E1F700C000000E949F0C9801305532304A
:10411000B0F6980145E0369527954A95E1F7822F4C
:104120008F702091740330E041E0082E01C0440FED
:104130000A94EAF72423232B11F29111AECF1092A7
:104140007B034ECF9801205C32452032310508F0C8
:10415000B6CF802F8F712091740330E041E0082E9C
:1041600001C0440F0A94EAF72423232B09F4A7CFB4
:10417000911509F43CCA91CFF7018681803108F08E
:104180009ECF911110C0212F2F7081E090E002C0CE
:10419000880F991F2A95E2F72091740382239323B5
:1041A000892B09F024CAF70187819085009709F4CB
:1041B00064C00E944307182FD92E86E0F7019E01A4
:1041C0002F5F3F4FD90101900D928A95E1F7F701DA
:1041D000C580B680B2948FE0B82280917F0387704B
:1041E00001F1AC2CC114F1F0892F807F803461F093
:1041F000812F805E8830A8F0892F807E803221F464
:10420000123078F0B11469F08091000482FF09C087
:1042100082E00E941E0680917F038770AA24A394E7
:104220008111A12C8D2D82958F70882E912C8C3030
:1042300008F052C0F401E15EFA4C0C9434340B35B2
:104240008CE71807C1F00C358CE7180709F0ABCFE5
:1042500080910004002482FF0394802D0E94A30E0D
:10426000A2CF6FEF7FEF80E090E00E94BC340E940D
:10427000BC1081E0F3CF80E0F1CF8581C080D18098
:10428000811559F0C60134D8182F682FC6010E9435
:104290000105B601812F11D88CCFC6010E943605C9
:1042A000182FF7CF0D2D0F708D2D803110F0029546
:1042B000007FC11409F448C0011559F0812F805EB8
:1042C000883010F011113AC0802F0E9438060E94E9
:1042D000DA0E812F0E94560F88E0881A910884E038
:1042E0008816910418F40E944A0AA12C812F9D2D52
:1042F0000E94C304811541F0C11409F411C2B11424
:1043000009F405C210920304A114A1F080917F0367
:1043100080FD10C0F70115828695869586950E94CE
:10432000ED04C70162D880917F03869586958695B6
:104330000E94F60460E0C70122D868C980917E031C
:10434000802B80937E03C3CF812F0E94DA0F01154B
:1043500019F2812F805E883010F0111104C0802F77
:104360000E943E0606C0009580917E0380238093C4
:104370007E030E94DA0EB0CF0D2D0F708D2D807F41
:10438000803211F00295007F113040F009F472C0C4
:10439000C11409F47EC0B114D9F09BCF8091000400
:1043A00082FD12C0C11449F0011529F0802F0E942E
:1043B00038060E94DA0E80E08DCF80E00E94DA0F8E
:1043C000011509F489CFCBCFC11491F1B11004C00C
:1043D000802F0E942E0F80CF8B2D813089F470901A
:1043E0007703802F8721081709F476CF0E940A0BE4
:1043F0008093750390937603702A709277036CCF45
:104400008091F303823008F467CFB81265CF802F14
:104410000E942E0F802F0E94750B80917803902FA1
:104420009823091709F458CF802B8093780354CF31
:10443000B11011C0802F0E943D0F802F0E94750B7C
:1044400080917803902F982309F446CF0095082394
:104450000093780341CF8091F303823008F43CCF7E
:104460008B2D813009F038CF80917B03802309F4B4
:1044700033CFE0CF8091F903C11421F08B1508F4FC
:104480002BCFA6CFB81608F027CF802F0E943D0F64
:1044900023CFB114D1F38091F7039091F80319332E
:1044A00021F08091F5039091F6030E94F70D812F82
:1044B0000E94DA0F11CF8D2D8695869583708130FD
:1044C00060F009F009CF812F9D2D9370C11002C0BB
:1044D00080E090E00E94840AFFCE812F9D2D937092
:1044E000C11002C080E090E00E945D0AF5CE6C2D04
:1044F000812F0E94C10BF0CE8D2D8370A1F5C110CC
:10450000EBCE812F829586958770880F880F412F7B
:104510004F70082E01C0440F0A94EAF7212F207132
:1045200014FF06C02FE001C0220F8A95EAF72095FC
:104530009D2D969596959370923081F0822F842BC5
:10454000933031F080917903913029F0242B82232C
:104550000E94E704C1CE842B822BFACF242B8091BA
:1045600079038227F5CFC11461F1D0FEB5CE812F3A
:10457000829586958770880F880F412F4F70082E7F
:1045800001C0440F0A94EAF7212F207114FF06C0DE
:104590002FE001C0220F8A95EAF720959D2D969570
:1045A000969593709230A1F0822F842B933031F046
:1045B00080917A03913049F0242B82230E94EA04EF
:1045C0008BCE823008F488CED2CF842B822BF6CFCC
:1045D000242B80917A038227F1CF0D2D0F70C11407
:1045E00029F0802F0E94ED04812FF3CE812F0E94AD
:1045F0003D0F802F0E94F6046FCE123F81F160F4D0
:10460000103FB9F0113F81F0C11409F47BC0B11023
:1046100060CE8D2D8F7127C0133F41F1143FA1F75C
:104620008091000482FD2EC08D2D8F71C11411F375
:104630001AC08091F903C11471F0B81608F04CCE7D
:104640002D2D2F7181E001C0880F2A95EAF79091F6
:104650007A038927B3CF8B1508F43ECEF1CF8D2D89
:104660008F71C110C7CF0E94ED0436CE80E0C11417
:1046700009F4A4CF81E09D2D9F7101C0880F9A9508
:10468000EAF79CCF8091F303823048F1C114C9F05E
:1046900090917F039770943059F410927F03109299
:1046A0008003109281038D2D8F710E94F6041BCE22
:1046B00063E0B81608F017CE8D2D8F710E94620B43
:1046C00012CEB81640F010927F0310928003109221
:1046D000810364E0F1CF81E00E941E0604CEC11484
:1046E00031F063E08D2D8F710E94620BF5CD81E07A
:1046F0000E941E068B2D823008F4EECD82E00E94CF
:104700001E06EACDB110C7CE8D2D8F7173CF80916B
:104710007D0380937C0380917B0380937D03F4CDA4
:1047200040E060E089819A810E94A61900917B0394
:10473000B11429F01092030400937D03E5CD20917C
:1047400001043091020482179307B1F78091F403BA
:1047500082FFF0CF80910304811561F380917C0387
:104760000E942E0F812F0E941B1080917C030E94BB
:104770003D0FE0CF03378CE7180711F00C94961A21
:1047800080916103811509F4FFC80E944D0F0C94BC
:10479000F71A8091D403803170F48091D30381158E
:1047A00051F0E0918503209184033091CF03409133
:1047B000CE032E1301C00895BF0189E0E89FF001E8
:1047C0001124DF01AA57BC4F14968C9114978115C0
:1047D00059F111968C911197831326C08C918413F3
:1047E00023C015968C91159781111EC012968D913C
:1047F0009D91A091D003B091D1038A1B9B0B883C63
:10480000910590F48091D4038F7080618093D403DC
:10481000E457FC4F80818F70806180838EEC93E041
:104820000E94F5190C9414066F5F7F4FFB01E7702F
:10483000C0CFEF92FF920F931F93CF93DF93F82E89
:10484000E92EC091850380918403C81791F189E016
:10485000C89FE00111248E010A571C4FF801858181
:10486000811589F0C8010E94D819811561F0FE01F7
:10487000E457FC4F80818F7080618083F8018081D4
:1048800091810E94D110C8010E94F5198091850381
:10489000909186030196877080938503CA57DC4FF9
:1048A00089818E11CECF88818F11CBCF8D818115DB
:1048B00041F2CDB7DEB7E6E00C94FE33EF92FF9203
:1048C0001F93CF93DF93EC0180913C01811541F060
:1048D00010E0812FDF91CF911F91FF90EF9008950D
:1048E000EA80FB80E61AF70A84EFE81681E0F80612
:1048F00078F760E0CE010E94BF199C01305230333E
:1049000038F70E94E605811519F38091FF02909116
:1049100000030E94E605182F8115D1F28091FD0356
:104920009091FE03853F21E0920710F084EF91E023
:10493000E816F90668F68E818F7080618E83888113
:1049400099810E94D1100E94A505CE010E94F519FF
:10495000C0CFAFE0B0E0EFEAF4E20C94D9338C01C1
:1049600086E0F801DE011A9601900D928A95E1F732
:10497000F80170806180C280D380E480F58030913E
:10498000D702E0E0F114A9F12EECA22E23E0B22E22
:104990008091D203811157C0E114D1F0F11409F4D0
:1049A00043C2C8010E94D819811509F43DC2609123
:1049B000820370918303C80181DF811109C089E0FE
:1049C000F801AEECB3E001900D928A95E1F7E1DEDB
:1049D000FF24F39488C0880F991F89539D4FDC01F1
:1049E00011962C911197261103C08C91781649F0DD
:1049F000EF5F8E2F9E2F990F990B831791055CF314
:104A0000C3CFEF3F09F4C0CFD80116968C918F70B9
:104A100080618C93E317A0F431503093D702E317F1
:104A200078F4F0E0EE0FFF1FE953FD4FA32FB0E045
:104A3000AA0FBB1FA953BD4F8D919D918083918378
:104A40000E94A505A1CF60E08EEC93E00E94BF1903
:104A50005090D3032091D0033091D1034601821AA4
:104A6000930A511409F42BC228EC8216910408F021
:104A7000DFC1E11409F4ACCF3091CF03F8012181FB
:104A8000E090D4034E2D403108F0B0C132134CC039
:104A90003091CE032081321347C0F11045C08E2DD6
:104AA0008F7080618093D4038EEC93E00E94F5199F
:104AB0008091D403F8018683C090D003F090D10395
:104AC0000091850380918403081751F089E0089FC5
:104AD000800111240A571C4FF8018581811108C0FB
:104AE0000E941406F12C8F2D2F96EFE00C94F533D5
:104AF000D280E380C8010E94D81981110EC0C8017C
:104B00000E94F51980918503909186030196877024
:104B100080938503CD2CFE2CD3CF6C2D7F2DC80127
:104B2000CDDE8111EFCFDCCF9052903308F07BC007
:104B3000F110F8C040E0662D872D0E948605811196
:104B400047C040E0662D872D0E948605F82E81150E
:104B500009F419C18091F40380FFC4CF8EEC93E077
:104B60000E94F51960E08EEC93E00E94BF198C0161
:104B700070908503C72C88E0D82E9EEC892E93E098
:104B8000992E80918403C81689F0560129E0C29EAF
:104B9000C00111248A579C4F7C0160E00E94BF191C
:104BA000582E692EF701858181118EC08D2D883098
:104BB00008F4B5C08A859B853CDE0E94A5050E944D
:104BC0001406EEECF3E089E011928A95E9F78ACFBA
:104BD00060E0C8010E94BF198091F40383FFB1CF48
:104BE000B8018EEC93E00E94B2058111AACF8091AA
:104BF000D4038F7080618093D4038091CE03909111
:104C0000CF030E94D1108EEC93E00E94F519EEECD8
:104C1000F3E089E011928A95E9F78A859B8509DEA0
:104C20000E94A5055DCFF11409F48BCF8091D403C8
:104C300081608093D4038091F40381FF53CF8EEC85
:104C400093E00E94F5190091850380918403081771
:104C500009F4C5C029E0029FC00111248A579C4F66
:104C60007C010E94D819811509F4B9C089E0F701C7
:104C7000AEECB3E001900D928A95E1F7C801019680
:104C80008770082F809385030E9414068091840307
:104C9000081709F425CF89E0089F800111240A57DD
:104CA0001C4FC8010E94D81981111ACFC8010E9457
:104CB000F51920918503309186032F5F3F4F2770B0
:104CC000022F20938503E2CF1052103308F06ECFED
:104CD0008091F40383FD0AC0DC2C95012395822F7B
:104CE0008770C82E052D162D47014BCFB701C40183
:104CF0000E94B205811589F3EFCF29E0729EC001B1
:104D000011248A579C4F0E94F519209185033091F8
:104D100086032F5F3F4F2770722E20938503D71095
:104D2000ECCF48CF8091D40381608093D40360E0BE
:104D3000C8010E94BF198091F40383FF7CCFB801A2
:104D40008EEC93E00E94B205811175CF8091D4035F
:104D50008E7FF82E8093D403C8010E94D819811148
:104D6000C1CE8F2D8F7080618093D4038091CE034C
:104D70009091CF030E94D1100E94A5058EEC93E084
:104D80000E94F5191ECF8A859B850E94CD19292F77
:104D900022952F70903450F49F70223080F091153E
:104DA00099F0F8019681903178F49DCE2A5F2F70AA
:104DB000223078F0C8010E94F519F52C94CE911597
:104DC00019F0811509F48FCE805E883008F48BCEFF
:104DD000F1CF803F08F487CE815F8330F7CFEEECD0
:104DE000F3E089E011928A95E9F750CF321314C0AD
:104DF0009091CE03808198130FC0F1100DC0E68210
:104E0000C8010E94F51989E0F801AEECB3E0019009
:104E10000D928A95E1F7DCCDC8010E94D819811561
:104E200019F08E2DF11031C0C8010E94F519D0CDB6
:104E30009090D403892D803130F48EEC93E00E9461
:104E4000F519F501C0CEE11409F4C2CD9091CF035C
:104E5000F8018181981311C09091CE03808198133D
:104E60000CC0F1100AC09682C8010E94F519F50124
:104E700089E011928A95E9F7ABCDC8010E94D81953
:104E8000811591F2F11481F2892D803208F497CDC9
:104E90001E821F82188619868091CE039091CF03BF
:104EA00089839A83CB82DC828091D2038D83809127
:104EB000D4038F83CE0101960E94F51980CD88EC32
:104EC0008816910408F0BDCFE11409F481CDF114E6
:104ED00009F4AACF9091CF03F8018181981327C0DC
:104EE0009091CE038081981322C060E08EEC93E015
:104EF0000E94BF198091FB039091FC0388169906CC
:104F000008F081CF9091D40390FD7DCF903108F4CB
:104F10007ACF892FF8019683907F903F09F470CF64
:104F2000982F907F905F8F70892B868369CFC801FF
:104F30000E94D819811561F06091820370918303FA
:104F4000C801BCDC811509F43ACDEEECF3E090CF5A
:104F50008091D40381608093D40366CFA1E2B0E056
:104F6000E4EBF7E20C94E4334C8F5D8F6E8F7F8F10
:104F7000082F88A3192F99A3811509F4BAC040E01E
:104F8000692F8C8D9D8D0E94A619111549F01092E4
:104F90000304809301049093020410927E030AC0DC
:104FA00020910104309102042817390719F481E097
:104FB00080930304198E1A8E1B8E86E0FE017C9668
:104FC000DE01539601900D928A95E1F780910004DD
:104FD00082FF21C08091D9039091DA03892BD9F007
:104FE0000E940A0B2091800330918103821B930B56
:104FF0002091D9033091DA038217930738F080911A
:105000007F0382FD03C082E00E941E060E94160BF1
:1050100081110E944606011561F00F8B188F61E027
:10502000CE0143960E94BF1961E0CE0143960E94D3
:10503000BF190F8B188F89E0FE017396DE011A9657
:1050400001900D928A95E1F7CE010A9682DC8111DA
:1050500028C0209184033091850389E0AE01465F2A
:105060005F4FFA0149505109DA0101900D928A957A
:10507000E1F78E858115A9F0822F90E083958770E6
:1050800090E0AC0134171506C1F50E949210109201
:10509000840310928503EEECF3E089E011928A9587
:1050A000E9F78091850390918403891749F029E0FD
:1050B000829FC00111248A579C4F4BDC811130C064
:1050C0008E85811112C080913C0181110EC08C85AA
:1050D0009D852091820330918303821B930B8F3F28
:1050E0009F4318F081E080933C01A196E4E00C948A
:1050F0000034911509F45ECF50CF99E0929FD00112
:105100001124AA57BC4F9E012F5F3F4FF901019018
:105110000D929A95E1F7409384030E941406C1CF43
:105120008091850390918603019687708093850313
:10513000B8CFA6E0B0E0EFE9F8E20C94E4330E94C7
:105140000A0B8C0180919B0290919C028017910721
:1051500071F019821A820E940A0BBC0149815A819E
:1051600080E090E0FBDE00939B0210939C02269669
:10517000E4E00C940034A6E0B0E0E1ECF8E20C943A
:10518000E6338093970290939802903230F40E9415
:10519000B80F2696E2E00C94023480EF89838A836C
:1051A0000E940A0B8160BC0149815A8181E091E033
:1051B000D5DEEFCFA6E0B0E0E0EEF8E20C94E63307
:1051C0008093970290939802903230F40E940610D8
:1051D0002696E2E00C94023480EF89838A830E9451
:1051E0000A0B8160BC0149815A8181E090E0B6DE02
:1051F000EFCF85E290E00E948634843C69F486E239
:1052000090E00E9486348B3039F487E290E00E946F
:10521000863491E08D3109F090E0892F81700895F6
:10522000A6E0B0E0E6E1F9E20C94E2330BE013E033
:1052300081EDE82E82E0F82E46E050E0B701CE0185
:1052400001960E947634F80188E011928A95E9F778
:10525000B8016C5F7F4F89819A810E945508F801DF
:1052600080839183B8016B5F7F4F8B819C810E940B
:105270005508F801828393838D8186838E8187838D
:1052800086E0E80EF11C085F1F4F81E0E81683E01E
:10529000F80691F62696E6E00C94FE33A6E0B0E020
:1052A000E4E5F9E20C94DB33A0904D02B0904E029D
:1052B00081E080934D0210924E02812C912C10E0DF
:1052C000640100E01AC021E030E0133021F0F70162
:1052D000859194919C01472D602F812F0E94B50EDE
:1052E000739482E0E80EF11C872D883061F70F5F20
:1052F00088E0C80ED11C0A3041F0C601880F991F02
:10530000835D9C4F7C01712CDECF1F5F80E5880E92
:10531000911C1430A9F60E94CA18FE013196DF01D3
:1053200086E01D928A95E9F781EDE82E82E0F82E5D
:105330001E2F0F2F46E050E0B701812F902F0E94C3
:10534000C03486E0E80EF11C81E0E81683E0F80640
:1053500089F7A0924D02B0924E022696EDE00C9491
:10536000F733A0E1B0E0E7EBF9E20C94D833FE01AB
:105370003196DF0180E11D928A95E9F700E110E0A6
:1053800091E0A92E93E0B92E612C712C23014A944F
:105390009E2E8F2E6201730181E148165104610433
:1053A00071041CF080E1C82ED12CA601B501892D15
:1053B000982D0E949334AC0CBD1C0D2C000C0008E1
:1053C0004C185D08600870080150104019F760968D
:1053D000E0E10C94F4336FEF85E290E00E94A23498
:1053E0006FEF86E290E00E94A2346FEF87E290E0D8
:1053F0000E94A23460E088E290E00E94A2344EDF76
:10540000B0DF64EC85E290E00E94A2346BE086E2BB
:1054100090E00E94A2346DE187E290E00C94A23407
:10542000CDB7DEB7AA970FB6F894DEBF0FBECDBFDB
:1054300085B7806885BF85B7806885BF84B7877F5B
:1054400084BF0FB6F894A89580916000886180931E
:105450006000109260000FBE80E890E00FB6F894F4
:1054600080936100909361000FBE81E080933A01C8
:105470008FE298E08093D0019093D101D1DE0E9419
:10548000A4180E94D90D0E948A0D8091E2008460C8
:105490008093E200789480914F02811599F0809179
:1054A000E9001091EC008F7010FB112717F9182BF1
:1054B0001092E9008091E80083FD0E9405111F70A1
:1054C0001093E90082E084BD93E095BD9AEF97BD0B
:1054D00080936E00109293021092940210929502A3
:1054E0001092960286DE811101C075DF8091D8008E
:1054F00080618093D8008AE18A95F1F700C080919D
:10550000D900182F117080FD04C00E94D90D10928F
:105510004F021093910254985C988FE891E00197A4
:10552000F1F700C0000088274C9983958093920280
:1055300080930401809191028111E9D78091040147
:105540008091040190E0811101C095E09093860262
:1055500085E0891B8093780207E511E0F8018191CD
:105560008F018F3F11F00E94310881E00C35180740
:10557000A9F75CE5E52E51E0F52E04E611E0F70110
:1055800081917F018F3F11F00E9431080E151F0598
:10559000B1F7ECE7F2E08AE011928A95E9F7E7E8E3
:1055A000F2E08AE011928A95E9F780E090E00E94AB
:1055B0008E34833E9E4F19F41CDE811129C063EEA8
:1055C0007EEF80E090E00E94BC3460E082E090E0FA
:1055D0000E94A23481E08093790361E083E090E04F
:1055E0000E94A234198284E18A83CE0101960E942E
:1055F0009C0EF1DE60E070E0AB018FE090E00E9475
:10560000B43460E070E0AB0183E190E00E94B43418
:1056100082E090E00E9486348093390284E090E03A
:105620000E948E348093FF03909300040E946D14B7
:105630008FEF96E721E0815090402040E1F700C0D5
:1056400000000E946D1480919202E4E0811101C07B
:10565000E9E0F0E0E458FD4F808180FF08C06FEF83
:105660007FEF80E090E00E94BC340E949F0C83E0BA
:1056700090E00E9486340E94E7048091910281119B
:1056800001C048D785E091E08093BD029093BE02AF
:105690007E018FEFE81AF80A80914F0210E48530FE
:1056A00009F480C00E946D140AE312E04CE7C42E96
:1056B00042E0D42EF601D8019D91808124E432E0AD
:1056C0002A173B0709F478C031969817A9F3609020
:1056D0009102B12CF601A1906F01F80181918F0127
:1056E0008A1529F18A25782E88248394912C872D78
:1056F0008821B1F06114A1F09982BA820E940A0B4C
:105700008B839C8381E08D8391E08A2D882109F42D
:1057100090E09E8349815A816B817C818D811EDC62
:105720009394880C892D883011F7F801A292B394D4
:105730008B2D8A3079F60E94840C41C080914F02F3
:10574000843019F11092370288E190E00FB6F89496
:10575000A895809360000FBE1093600083B7817F8F
:10576000846083BF83B7816083BF7894889583B753
:105770008E7F83BF0FB6F894A895809160008861F2
:1057800080936000109260000FBE0E946D14ECE7E1
:10579000F2E080818111A6C4319686E892E08E17EE
:1057A0009F07B9F780914F02853009F4C7CF0E9457
:1057B00092100E944A0A76CF981389CFBADC809162
:1057C0009102811589F18091F20380FF1CC08091C4
:1057D0003B0182FF18C00E940A0B209165033091A3
:1057E0006603AC01421B530B209111013091120151
:1057F0004217530740F041E0BC018091670390914C
:1058000068030E94E81380916103811569F00E948A
:105810000A0B2091620330916303821B930B8F3F2D
:105820009F4710F40E944D0F86E0E9EFF2E0D701A8
:1058300001900D928A95E1F79090FA02B090FB02E8
:10584000C090FC02A090FD02D090FE021092FB02DC
:105850001092FC021092FD021092FE028C2D8B29F8
:10586000A1F000914602109147020E940A0B801B92
:10587000910B9C019091F702911509F48CC08091D5
:1058800016018217130608F494C08D2D8A29A1F001
:1058900000914402109145020E940A0B801B910B5B
:1058A0009C019091F602911509F4B3C08091140106
:1058B0008217130608F4BBC08091FA02891119C03F
:1058C0008091FB02811511F08B1113C02091FC0215
:1058D000211511F02C110DC09091FE02911511F0BF
:1058E0009D1107C03091FD02311103C0822B892B1D
:1058F00011F00E94990B86E0F701A9EFB2E0019048
:105900000D928A95E1F70E944A0A90914802891700
:1059100021F0809348020E94780C80914F028430DD
:1059200009F0BACE83E08093E9008091E80082FF1D
:10593000B3CE8091E80090E085FF0AC00E94590D27
:1059400030E2C32ED12C8701811509F4ABC091E060
:105950008091E8008B778093E800911509F49CCE44
:105960000091990210919A02E9810115110509F43B
:10597000A7C0EE3F09F0CEC08A81833020F0855069
:10598000833008F0C7C0EA81EE3008F0C3C0F0E011
:10599000E55DFA4C69C7409115018AE0489FA00176
:1059A00011244217530708F070CF9F5F9093F702BE
:1059B00002C09F3FD1F7B11459F00E94940991E0C1
:1059C0001B140CF09FEF899F802D11248093FB0204
:1059D000C11459F00E94940991E01C140CF09FEF3F
:1059E000899F802D11248093FC028091FB028115F8
:1059F00009F44BCF1091FC02111509F446CF0E9417
:105A000086098093FB02812F0E9486098093FC0205
:105A10003CCF409113018AE0489FA0011124421716
:105A2000530708F049CF9F5F9093F60202C09F3F53
:105A3000D1F7A11459F00E94EC0991E01A140CF06E
:105A40009FEF899F802D11248093FD02D11459F07E
:105A50000E94EC0991E01D140CF09FEF899F802DAE
:105A600011248093FE028091FD02811509F424CF58
:105A70001091FE02111509F41FCF0E948609809330
:105A8000FD02812F0E9486098093FE0215CF80912E
:105A9000F100F801808381E0C81AD10809F457CFDA
:105AA0000F5F1F4F8091E80085FDF1CF8091E800E6
:105AB0008B778093E8000E94590D811599F347CFA9
:105AC000E43148F4E11551F0E150E33138F4F0E00D
:105AD000E75CFA4CC9C6EE3F09F455CF8FEF2EC3F1
